:100000000C949B290C94BA290C94BA290C94BA2903
:100010000C94BA290C94BA290C94BA290C94BA29D4
:100020000C94BA290C94BA290C94BA290C94BA29C4
:100030000C94BA290C94BA290C94BA290C94BA29B4
:100040000C94BA290C94BA290C94BA290C94BA29A4
:100050000C94BA290C94BA290C94BA290C941D2A30
:100060000C94BA290C94BA290C94BA290C94BA2984
:100070000C94BA290C94BA290C94BA290C94BA2974
:100080000C94BA290C94BA290C94BA290C94BA2964
:100090000C94BA290C94BA290C94BA290C94BA2954
:1000A0000C94BA290C94BA290C94BA290C94BA2944
:1000B0000C94BA290C94BA290C94BA290C94BA2934
:1000C0000C94BA290C94BA290C94BA290C94BA2924
:1000D0000C94BA290C94BA290C94BA290C94BA2914
:1000E0000C94BA29F946233829382F3835383B384B
:1000F000413847384D3855385D3865386D38753872
:100100007D38533AAA389D38BF38B338C538AF392F
:10011000D839E139E939F139F939013A0A3A123A6B
:100120001A3A223A593A623A6A3A723A7A3A823A30
:100130008E3A973AA03AA93AB23ABF3AC93AD33A74
:10014000DD3A2B3B373B403B493B523B9641994183
:100150009C41C8413D42B640B940BC40E94068417D
:100160005B3B663B713B803B173CF5463F3C4A3C62
:10017000553C653C793C8A3CF546644367436A4399
:1001800096439B44C644C944CC44F344B7456A42B1
:100190006D4270428942C842E342E642E942054369
:1001A0004A43D433E833FB3314347834383464347A
:1001B0004134553491349C34A734B234C034CE34F5
:1001C000DC343535F73425350435143543355135B0
:1001D0005F35F546FC37C9375D376F378C37A03749
:1001E000B33DC53DD73DE63DF53D073E993EA83EB2
:1001F000473D593D6B3D7D3D8F3DA13DC33CD93CC5
:10020000EF3C053D1B3D313D753E873EA13CF5462B
:10021000E3450B46BB3EC53EE93EB73E303F123F8D
:10022000F33E333FC63F68407B40A7409946484075
:100230000540363F8A3F283CE3371138963766370A
:10024000F946963B193E283E373E463E553E653EB2
:10025000853891382A3A333A3B3A433A4B3ACB38CD
:10026000E73AF73A043B113B1E3BF8411B41E043A0
:100270002D45A64225436D35DF35523660360737AA
:100280008936FC36E536F03615372D374537D13E01
:10029000BA37C237A8377B37A246135216528D524F
:1002A00019521C521F52225225528D528D522852E1
:1002B0002B528D522E52315234528D528D528D52BC
:1002C0008D528D528D528D528D528D5237523A52DF
:1002D0003D5240528D528D528D528D528D5243520D
:1002E000465249528D528D524C524F528D528D5220
:1002F00052528D528D528D528D528D5255525852AE
:100300005B525E526152645267526A526D528D5214
:1003100070528D528D528D528D528D5273528D521C
:1003200076528D528D528D528D528D5279527C5211
:100330007F528D528252855288528B52213C61727B
:1003400063683E0A626173652E64692F2020202055
:1003500020202020313335303539383132392020D2
:1003600031303033202031303033202031303036BE
:100370003434202031323438322020202020600ACA
:10038000070F001800D5048105592C5F2CC03000E0
:100390000100FF6261736500012B580069009A003B
:1003A000BB00D800E900FE000F012C0149016601E5
:1003B000730184019101A201B301C001D101DE01E9
:1003C000EF01180221023E0247025802690282022E
:1003D0008F029802B102C202DF02EC028D03120406
:1003E000270430044F046C0479048A04A304B00485
:1003F0000200000EFF0000000200000000000100EB
:100400000100000019FF0001000A000000020002C4
:1004100000030003000400040005000500060006B8
:10042000000700070008000800090009000A000A88
:10043000000B00000019FF000200060000000C0085
:1004400002000D000B000E000C000F000D0010004C
:100450000E001101000002FF00030005000F001252
:10046000000E0013001000140011001500120016F9
:100470000200001DFF000400020000001700010040
:100480001802000012FF000500030000001900130D
:10049000001A0001001B0200001DFF000600020000
:1004A00000001C0001001D000100192300070005C9
:1004B0000014001E0015001F001600200017002168
:1004C0000018002200010019FF00080005001C00B0
:1004D00026001D002700160028001700290018001C
:1004E0002B00010019FF00090005001F002C00204F
:1004F000002D0017002E0018002F001600300000FD
:100500000019FF000A0001000000370200001DFF73
:10051000000B000200000038000100390000001943
:10052000FF000C00010000003A02000025FF000D52
:1005300000020000003B0001003C02000025FF001B
:100540000E00020000003D0001003E00000019FF07
:10055000000F00010000003F0200001DFF0010001E
:1005600002000000400001004102000010FF0011E5
:100570000001000000420200001DFF001200020006
:100580000000430001004400040019570013000854
:100590000013004F001D0050003100510032005286
:1005A0000033005300160054001700550018005681
:1005B00000000019FF0014000000080019FF0015DA
:1005C00000050039005C0033005D0016005E001776
:1005D000005F0018006000000019FF001600000214
:1005E00000001DFF00170002000000680001006904
:1005F00002000010FF001800020000006A00010065
:100600006B0000FF00FF001900040000006C0016E2
:10061000006D0018006E0017006F02000026FF003A
:100620001A00010000007000000019FF001B00000C
:100630000000001977001C00040042007300430012
:100640007400440075004500760200000EFF001D96
:100650000002000000780001007900020019FF008C
:100660001E00050048007C0031007D0016007E0061
:1006700017007F001800800200000DFF001F00011E
:100680000000008101080019FF0020002600000082
:10069000820001008300490084004A0085004B006D
:1006A00086004C0087004D0088004E0089004F00F6
:1006B0008A0050008B0051008C0052008D005300C6
:1006C0008E0054008F0055009000180091005600D5
:1006D00092005700930058009400590095005A006A
:1006E00096005B009700170098005C0099005D0081
:1006F0009A005E009B005F009C0060009D0061000E
:100700009E0062009F006300A0006400A1006500DD
:10071000A2006600A3006700A4006800A500160000
:10072000A6006900A701050019FF0021001F0000B5
:1007300000AF001300B0000100B1005100B2007121
:1007400000B3007300B5007500B7005200B8005345
:1007500000B9007600BA007700BB007800BC0079D1
:1007600000BD007A00BE007B00BF007C00C0007DA1
:1007700000C1007E00C2007F00C3008000C4008171
:1007800000C5008200C6008300C7008400C8008541
:1007900000C9008600CA008700CB008800CC001684
:1007A00000CD008900CE008A00CF02000012FF00B9
:1007B000220003000000D0000100D1001300D2008D
:1007C000000019D70023000000020019FF002401D7
:1007D000001B05000000DE009200DF009300E00037
:1007E0004000E1009800E602000019FF0025000526
:1007F000000000E8000100E9009A00EA009B00EB1D
:10080000009C00EC0200000DFF002600010000002B
:10081000ED0200001DFF00270002000000EE0016A0
:1008200000EF01000019FF0028000400A200F500FD
:10083000A400F700A600F900A900FC0200001DFFBB
:1008400000290001000000FD0200000DFF002A0049
:1008500001000000FE04AA000100000100000100E8
:100860000103010300010101010001010000000179
:100870000001020100010100010101010102020168
:100880000101020102010201000000000201020157
:100890000101010202020200000100000001020148
:1008A0000103040203010103000104010001010529
:1008B0000201010102010201020102010200000025
:1008C0000001010301010101000001010102010118
:1008D00001030101010102010202020202020200FF
:1008E00000000005000101020001000100000000FD
:1008F00000010200010001010100010002010101EB
:100900000002FF00021002210231023D024A02569B
:100910000263026F028B029602AC02D602E602F27A
:100920000208032C0338034303580374038A03A704
:1009300003BA03CA03DB03EB03FB030C041C042D03
:1009400004420452046E048A04B304D504E704107C
:1009500005250535054205530567059005A505B52F
:1009600005C605EF05FC0535066E068B06B106D7F4
:100970000621073107410752076207720783079371
:1009800007A407B407C407D507E507F50706087FDE
:10099000089008A108B208F9080B09550A670A7FF0
:1009A0000A980AAD0ABF0AD00AE00AF10A040B1439
:1009B0000B3D0B220CA90CBB0C140E260E3B0E4B50
:1009C0000E5E0E780EA20EB20EC80EE00EF60E0FE0
:1009D0000F250F3E0F4E0F5F0F6F0F800F8C0F977D
:1009E0000FAD0FB80FC80FD70FE70FF20FFD0F08AD
:1009F000101310291039104A105C1086109B10AB90
:100A000010BF10D010F9100911201153118311D902
:100A100011E911FF113B1250129A12B912C912F5C5
:100A20001242134F138413DF130F14AD145915B969
:100A300015CC15E715231636168C16A416F31606D4
:100A400017C517DB173918831811198819FF196290
:100A50001A6F1A901AAB1ABF1AD51AEE1A0C1B1E6F
:100A60001B301B421B5F1B7E1B8E1BA01BCC1B0560
:100A70001C4D1CE91C2B1D951DE61D161E771ECD59
:100A80001E221F371F861F9B1FB01F35209D20CEA3
:100A9000206721F221082275228B22A1220B231F1D
:100AA000233023402350236123712381238C2397F8
:100AB00023AA23C123CC23D723E223ED23F8230D3C
:100AC000242D24592482248E249924A424BA24CAAF
:100AD00024E824F324032518252D254725572567C9
:100AE00025772586259B25A625B125DB25E625002E
:100AF000260B261E2629265B269926A426B826C85C
:100B00002600000000010200000500219D003D9B21
:100B1000000100000002030000060021229D003EAB
:100B20009B0000000000010200000500219D006CF8
:100B30009B00000000000101000001009B0000007C
:100B400000000103000A02000999000002000002EF
:100B500001000001009B00000000000102000402EF
:100B600000029800000000000101000001009B004D
:100B7000000200000203000011001C83000F219CF2
:100B80000008003F7900FF94FFF39B000000FF0086
:100B90000100000A000000010000000207000A0B2B
:100BA0000021220922A37B9C000A01990001040074
:100BB000020406000A1F00092A041B041E8F0016E7
:100BC000221C1B046B219C0008007D7A39790401EA
:100BD00094FFEA1B049900000000000102000005D8
:100BE00000219D006C9B000000000001010000013D
:100BF000009B0001000000020700000B00212209F9
:100C000022A37B9C000C019B000104000004050052
:100C10000019001E1C6B2D1C1E8F001221221C347B
:100C20007B9C000E0079000194FFEF9B0000000008
:100C3000000101000001009B000002FFFE02000015
:100C40000000000001000000020300000A00219DD6
:100C5000000C21225400009B00000200000204004E
:100C6000001100214F000084000C214F00001C9C4B
:100C7000000E009B0001000000020300000B002199
:100C8000229C0055009C000B019B0001000000020B
:100C9000040000120021229C0055009C000B012141
:100CA000110A9C000E009B000000000001040000DF
:100CB000080021110A9C000E009B000000000001AA
:100CC0000200000500219D00789B00010000000249
:100CD000030000060021229D00799B000000000017
:100CE000010200000500219D00439B00000200005E
:100CF000020200000500219D00439B00010000004E
:100D000002030000060021229D00449B0000000019
:100D100000010200000500219D00789B00010000F9
:100D20000002030000060021229D00799B000001C3
:100D30000000020300000A00219D006C21175000F2
:100D4000009B0000000000010200040500214B0090
:100D500000980000000000010200FF1100214B007C
:100D600000B0000915002B94000615002C9A000015
:100D70000000000103000A1100214B0000B000092F
:100D80001304CF9400061304D5990001000000025B
:100D90000300041E0022A60007B00018214B00002B
:100DA00022A500079C001500870007039400040299
:100DB0009802980000000000000402001700A00044
:100DC0000746039D001E5E0000A0000746029D002E
:100DD0001E5E00019B0001000000010402080700E4
:100DE00021110A9E00259800010200020205020856
:100DF0001E00211C9E004B2D1E11808E00091E110D
:100E00007F91000BA00018469D006AA41E7D7A9871
:100E10000000010000020300000A00219D006C2177
:100E2000175000009B0000000000010200080500B0
:100E3000214B0000980000000000010200FF0200AA
:100E40000F9A00000000000103000A0600214B0079
:100E5000007B990000010000010402FF0900A000CE
:100E60000846179D00269A000100000002030004B6
:100E70001E0022A60008B00018214B000022A50089
:100E8000089C001D00870007039400040298029844
:100E90000000010000020300000A00219D006C21F7
:100EA000175100009B000000000001020005050032
:100EB000214C00009800000000000103000A060019
:100EC000214C00007B990001000000020300041E79
:100ED0000022A60009B00018214C000022A500093C
:100EE0009C002000870007039400040298029800E9
:100EF00000000000010200FF02000F9A0000010044
:100F000000010302042E0017106188000917107AEF
:100F10008B001F171200DF88000A171200F68B00E3
:100F200011171200F888000E171200FF8A0007033D
:100F300094000402980000010000010302042E0046
:100F400017104188000917105A8B001F171200C094
:100F500088000A171200D68B0011171200D88800DB
:100F60000E171200DE8A00070394000402980000A6
:100F700001000001030204120017103088000D1751
:100F800010398A0007039400040298000001000051
:100F9000010302051B00179E0032B0001517105AFE
:100FA0008A00091710205FAD981710205FAD9817C1
:100FB000980000010000010302051B00179E00318C
:100FC000B0001517107A8A000917102060AD981725
:100FD000102060AD98179800000300020205020A75
:100FE0003F00082E1D0B8E00301D112490002A1783
:100FF0009E0033B0000C171030607B2E94001A173F
:101000009E0032B1000A179E0031B0000C17101F6D
:10101000687B11096B2E1F1D8F00071F94000408A9
:10102000990000000000010200000500219D006CF5
:101030009B0000000000010200000500219D0078D7
:101040009B000100000002030000060021229D0019
:10105000799B0000000000010200000500219D00B6
:101060006C9B0000000000010200000500219D00B3
:10107000E89B000100000002030000060021229D01
:1010800000E99B0000000000010200000500219D16
:1010900000E89B000100000002030000060021227E
:1010A0009D00E99B000000000001020000050021F6
:1010B0009D006C9B00000000000102000005002163
:1010C0009D00789B00010000000203000006002143
:1010D000229D00799B000000000001020000050035
:1010E000219D00409B00000000000102000005005F
:1010F000219D00789B000100000002030000060013
:1011000021229D00799B0000040103020A02FF6E68
:10111000001E0B8E00091E1124910006110A2D10CD
:1011200021A105301C81000703940004022504114D
:10113000202A051604B100061C702B1C1E7090009E
:1011400019211B057905FF5900021C1E6F70353AE5
:101150001C1E6E2B94FFE7211B055900021C7035E5
:101160003A1604B0000C217905FF1B05102D3AA09A
:10117000002046211B0511211B056C9D00859A004E
:1011800000020000010502FF06001C0D9E00499AA6
:101190000000020000010502FF06001C0C9E004931
:1011A0009A0000020000010502FF06001C0A9E00D2
:1011B000499A0000040104020A02FF3C001020A129
:1011C000053011202A040A1E712A061B060A6C2A01
:1011D00006217904FF1B045900021C1B0674353AD2
:1011E0001C1E7D732B1C7FFFEBA0002046211B04DF
:1011F00011201B046C9D00859A000002000001056F
:1012000002FF07001C110A9E00459A000102000D12
:101210000207020A3F012185000EA00018461500B2
:101220002D9D006BA41C0B8F0029A0001846A00068
:1012300021469D00AF15002E9C0078011C9C007D6E
:101240000015002F9C0078019C0016009D006BA4E7
:101250001C1124910029A0001846A00021469D00E1
:10126000AF15002E9C0078011C9C007D00150030FD
:101270009C0078019C0016009D006BA4092D02259E
:1012800004092A05219C0051002A071B078300A698
:1012900021099C005200102D87001303250414809F
:1012A0000000002A0979050194000A148000000159
:1012B0002A091B091C6E2A0B1B051B078F00252101
:1012C0001B057905019C0052001C9E00362A0D1B4F
:1012D0000D81000CA0001846219D006BA41B0D7011
:1012E0002D1B051B078F0057211B057905019C004D
:1012F00052001C9E00362A0D1B0D81000CA0001808
:1013000046219D006BA41E1B0B8F000CA0001846ED
:10131000219D006BA41E1C6D2D1E1B091B0D6B8FC8
:10132000000CA0001846219D006BA41E1B0D6C2D07
:1013300094FFB1A0001846219D006BA41604B000D4
:10134000141B050A9100051E99A0001846219D0056
:101350006BA41E709900010000000104020A07003E
:1013600021110A9E004B990001020000020602FFB3
:101370000D00A0001346211C9E004B9D004F9A00BB
:1013800001000000010602FF0E00A000134621111B
:101390000A9E004B9D004F9A0000020000020400CC
:1013A000000A00219D006C211C5300009B000000DE
:1013B0000000010300080700214E00007D7A98001C
:1013C00000000000010300090600214E00007D9886
:1013D00000000000000103000A0500214E000099F2
:1013E00000000000000105000B0600214E0000D89F
:1013F000D50000000000010300FF0800214E00009E
:101400009E00AD9A00000000000103000A050021C3
:101410004E0000990001000000020500041E002299
:10142000A60013B00018214E000022A500139C0056
:1014300032008D0007039400040298029800000017
:10144000000000060200DA001024A1054609103051
:101450003A460A10313A460B10323A460C10333AEB
:10146000460D10343A460E10353A46110610363AFB
:1014700046110710373A46110810383A461109103C
:10148000393A46110A10613A46110B10623A461178
:101490000C10633A46110D10643A46110E10653A6D
:1014A00046110F10663A46111010673A4611111096
:1014B000683A46111210693A461113106A3A4611F9
:1014C00014106B3A461115106C3A461116106D3A0D
:1014D000461117106E3A461118106F3A461119103E
:1014E000703A46111A10713A46111B10723A4611A1
:1014F0001C10733A46111D10743A46111E10753AAD
:1015000046111F10763A46112010773A46112110E5
:10151000783A46112210793A461123107A3A5E0041
:10152000029B0000060103020D02FF7C001B040B5E
:101530008E000A1B041124910007110A2A0410418D
:10154000A1053011402A06B9B6DAB30007039400AA
:10155000040225081608B10006B9CEBFB91B0470F5
:10156000D8DAB4001E211B067906FF590002B91B08
:1015700004D8CDCED6353AB91B04D8CCBF94FFDF02
:10158000211B06590002B9CED6353A1608B0000C18
:10159000217906FF1B06102D3AA0002046211B06CC
:1015A00011411B066C9D00859A0000040000010794
:1015B00002FF0700B9110A9E00589A0001020013A9
:1015C000020D020B4E012185000EA00018461500E9
:1015D0002D9D006BA41C0B8F0029A0001846A000B5
:1015E00021469D00AF15002E9C0078011C9C007DBB
:1015F0000015002F9C0078019C0016009D006BA434
:101600001C1124910029A0001846A00021469D002D
:10161000AF15002E9C0078011C9C007D0015003049
:101620009C0078019C0016009D006BA4B6C10225A9
:1016300006092A07219C0051002A091B098300B5CD
:1016400021099C005200102D870017032506BD803C
:1016500000000000000000BE0B79070194000EBDE1
:101660008000000000000001BE0BB80B1CD8CCBEEF
:101670000F1B071B098F0026211B077907019C0000
:1016800052001C9E00362A131B1381000CA0001868
:1016900046219D006BA41B1370D8C11B071B098F2B
:1016A000005C211B077907019C0052001C9E00363C
:1016B0002A131B1381000CA0001846219D006BA467
:1016C000BBB80FDAB3000CA0001846219D006BA434
:1016D000BB1CD8CBC1BBB80B1B13D8C9DAB3000CE9
:1016E000A0001846219D006BA4BB1B13D8CAC1944F
:1016F000FFACA0001846219D006BA41606B0001494
:101700001B070A910005BBD5A0001846219D006B60
:10171000A4BBCED500010000000105020B0700218B
:10172000110A9E005AD50000040000020600000ABB
:1017300000219D006C21B9C600009B000000000044
:101740000105000B050021C50000D50000000000C8
:10175000010500FF080021C500009E00AE9A0000B0
:10176000000000010D000A0F0021C5000021C50086
:10177000001120D8D0D4D699000100000002090041
:10178000041F0022A60015B0001921C5000022A5E3
:1017900000159C003300DAB100070394000402989E
:1017A00002980000000000010200000500219D00D9
:1017B0006C9B00000200000103020A0B001C810068
:1017C000081C709400041C99000004000001090228
:1017D0000B0D00B9B6DAB30008B9CE940004B9D540
:1017E00000000400000205020A0B001C1E8E000708
:1017F0001C9400041E9900000800000209020B0E50
:1018000000B9B804DAB20007B9940005B804D500ED
:10181000000400000205020A0B001C1E9000071CB9
:101820009400041E9900000800000209020B0E003B
:10183000B9B804DAB40007B9940005B804D50000BB
:10184000000000010200000500219D00789B0001BE
:1018500000000002030000060021229D00799B0089
:1018600000000000010200000500219D00409B00D7
:101870000100000002030000060021229D00419BA0
:1018800000000000000101000001009B000000FFBB
:1018900000010001FF00000001000000020300043D
:1018A0000B0021229300070394000402980000001B
:1018B000FF000100010A000000000000000102001A
:1018C000000500219D00ED9B0000000000000202C9
:1018D000FF04005900039A0000000000010200000C
:1018E0000500219D006C9B000002FFFE020001002C
:1018F0000000000000FF000100010A0000000000DD
:10190000FF000100010A0000000000FF00010001CB
:101910000000000000000000000302000B00A00017
:101920001C469D00725E00039B0000000000010247
:1019300000000500219D003D9B0001000000020306
:101940000000060021229D003E9B000100000001D6
:10195000040209070021110A9E007B980001020081
:1019600002020502091F00211C9E004B2D1E138040
:10197000008E000A1E137FFF91000BA00018469DE9
:10198000006AA41E7D980000010000020300000A06
:1019900000219D006C21175200009B0000000000F8
:1019A000010200090500214D000098000000000020
:1019B000010300FF0900214D00007B9E00AD9A004D
:1019C000000000000103000A0600214D00007B9981
:1019D0000001000000020300041E0022A6001EB049
:1019E0000018214D000022A5001E9C003100870038
:1019F000070394000402980298000000000001020E
:101A000000000500219D003B9B0000000000010339
:101A100000000C00219D006C2102A1055400009BD8
:101A20000001000000020900002800219D006C2137
:101A3000229C00510053000421214E00047DA10589
:101A40005400002209214E0004214F0000099C008F
:101A500053019B0001000000020900002500219DA8
:101A6000006C2122A37B53000421214E00047DA1A0
:101A7000055400002209214F000009214E00049E58
:101A800000D59B0001040000040900004B00219DCB
:101A9000006C1C81000CA00022461C9D00D2A41EDC
:101AA00081000CA00022461E9D00D2A41C22A37B14
:101AB0001E6C91000EA00022461C1E6B9D00D2A43D
:101AC000211E7DA105540000211E530004221C216B
:101AD0004F0000091E9E00D59B0002040000050275
:101AE00000000500219D006C9B000200000003081F
:101AF00000000B0021220922A37B239D00869B006E
:101B000001040002040900003100219D006C211E27
:101B1000530004211E7DA105540000092A041B0462
:101B20001E0A6C900017214F00001B04221B041C8E
:101B30006B34AD3A79040194FFE79B00010000008B
:101B4000020700000A0021220922A37B9D00889B36
:101B50000001000200020400002F00219D006C2201
:101B60004632A7229C00890021229C008A00540052
:101B700000210953000021229C005100530004233E
:101B8000A89400083323A824A49B02FFFF08002682
:101B9000002900FFFF29002C002900010400000497
:101BA0000400001400219D006C2122540000211C1F
:101BB000530000211E5300049B000000000001039D
:101BC000000A0500214E00049900000200000206F0
:101BD000000521001C80000B1C214E00048E000C0F
:101BE000A00022461C9D00D2A4214F00001C214EC3
:101BF00000006B35980001060000050B0000420054
:101C00001C81000CA00022461C9D00D2A41E214E67
:101C1000000491000CA00022461E9D00D2A41C1EB0
:101C200091000EA00022461E1C6C9D00D2A4214FE4
:101C30000000214E00001C6B221B041E1C6C9E0029
:101C4000D59B0001000000020200FF02000F9A0075
:101C500000000102010700FF2A00214E00047DA1BF
:101C60000831092B1C214E00040A6C900017221C1D
:101C7000214F00001C351200FF687A397900019469
:101C8000FFE5229A00010001020205000450002134
:101C900022930005039822A60020B0004322A5004D
:101CA0002032214E00042B1C234E00048D003121D4
:101CB0004F000032234F000032214E00002B234EF4
:101CC00000002B1C7900FF7E0014231C79000135D5
:101CD000231C7900013586FFED02980398029800D5
:101CE00001000000020A0004250022840022224E86
:101CF0000004214E00048D00172103092209214E02
:101D000000049C005801B0000703940004029800EE
:101D10000100020E0205000A9300214E00042B224E
:101D20004E00042D1C1E9E00662A04214F00003226
:101D3000224F000033214E00002A06224E00002AC6
:101D4000081B061B088D00381B062A0A1B041B06ED
:101D50006B2A0C1B0A1B0C8F0023231B0A3525043E
:101D6000241B0A3525051604160586000A160416D6
:101D700005607B99790A0194FFDC94002F1B04799C
:101D800004FF7E0027231B06790601357B2A0A24DF
:101D90001B08790801357B2A0C1B0A1B0C8C0009D7
:101DA0001B0A1B0C6C9994FFD71C1E6C9900010731
:101DB0000206060D0004A100214F000032214E0052
:101DC000001D6B2A07214E0000214E00046B2A09DA
:101DD000224F000033224E00001F6B2A091F800093
:101DE000251D8000211DD8214E0004D81B05D8CA0E
:101DF000DAB400121FD8224E0004D81B05D8CADA64
:101E0000B5000502981B057905FF83004D231B07CC
:101E100079070135250B241B0979090135250C1695
:101E20000B160C87000694FFDF17B0002B160B9ED5
:101E30000035250B160C9E0035250C160B160C874D
:101E4000000694FFC3160B9E0034160C9E003487C8
:101E5000000694FFB30298039800010202060307EC
:101E600000045500214F000032214E00001C6B2D54
:101E7000214E0000214E00046B2A04224F00003343
:101E8000224E00002A04224E00042A061C80000E66
:101E90001C214E00041B066C91000502987906FF78
:101EA0001B06800015231E79020135241B047904CA
:101EB000013586FFEB02980398000100000002053F
:101EC000000408002122099C00590198000100002B
:101ED000000207000410002122214E0004224E00BF
:101EE000046C9C0059019800000001080106000ADA
:101EF0003100092B214E00002D214F000031214ED1
:101F000000042A04092A061B061B048F0016111F51
:101F10001C6D221E790201357B6B2B79060194FF23
:101F2000E91C9900000200000206000A0800211CBA
:101F3000099C005D009900000401040305000A4BA0
:101F400000214E0000214E00046B2A04214F0000A6
:101F5000311E810008092D94000D1E214E00048EB3
:101F600000050899214E00001E6B2A061B061B0463
:101F70008F001A221B06357B1C8D000B1B06214E81
:101F800000006C9979060194FFE5089900000200B1
:101F9000000208000A0D00211C214E00040A6C9C5E
:101FA000005F009900000401040307000A440021B7
:101FB0004E00002A04214F000031214E00001E2156
:101FC0004E00048E000C214E00040A6C9400041E86
:101FD0006B2A061B061B048E001A221B06357B1C6F
:101FE0008D000B1B06214E00006C997906FF94FFB3
:101FF000E5089900010000000205000A08002122FE
:10200000099C00610199000102020D0307000AB456
:1020100000214F000032224F000033214E000021EA
:102020004E0004224E00046C6B2D1C214E00048EC9
:102030000019214E00047F00101C7F000C224E006E
:10204000047F0005099908991C810005092B224E7F
:1020500000047F00051C99224E00002A04241B0462
:10206000352506214E00001C6B2A071B071E900019
:1020700012231B0735160686000979070194FFEE27
:102080001B071E91000508991B070A6B2A091B09EB
:10209000224E00046B0A6C2A0B1B040A6B2A0D1BD0
:1020A000091B0B8F001A231B0979090135241B0D0D
:1020B000790D013586FFEB79070194FFB11B0721EC
:1020C0004E00006C990000020000020600FF0B00A9
:1020D000211C214E00049C0063009A0000040000B3
:1020E000030900FF53001C81000CA00022461C9D28
:1020F00000D2A41E214E000491000CA00022461E16
:102100009D00D2A41C1E91000EA00022461E1C6C35
:102110009D00D2A41C7F000F1E214E00048D0007DD
:1021200021940017A0002046214E00001C6B1E1CAD
:102130006C214F00009D008B9A00010001020209F2
:1021400000FF3F00229C0051002B1C7F0005219ABC
:10215000214E00047D1C7D5FA105322109214E0026
:102160000423099C00530122091C23214E00049CD6
:10217000005301A000204609214E00041C6B239D42
:10218000008B9A0000020106030900FF8300171864
:1021900086007F214E00042D082A04214F000031C3
:1021A000214E00002A067904011B041E8F00112213
:1021B0001B061B046B351787FFEF9400031B041EDF
:1021C0008F004F1E7DA10531092D1E1B048F0012AB
:1021D000221E221B061E6B353A79020194FFEE1B6C
:1021E000041E8F0022221B061B046B357B2D221B35
:1021F000041E177B8D0007189400051E7D3A790494
:102200000194FFDEA0002046091E229D008B9A212A
:102210009A0000000103010900FF6C00092B1C213A
:102220004E00048F0020214F0000214E00001C6B47
:10223000352819199E003486000694000B79000198
:1022400094FFDE219A214E00047DA10531214F002B
:1022500000214E000022091C9E00D51C214E0004C6
:102260008F001A221C214F0000214E00001C6B35EC
:102270009E00343A79000194FFE4A0002046092131
:102280004E0004229D008B9A00000001030109000A
:10229000FF6C00092B1C214E00048F0020214F00F1
:1022A00000214E00001C6B352819199E0035860050
:1022B0000694000B79000194FFDE219A214E000460
:1022C0007DA10531214F0000214E000022091C9EF6
:1022D00000D51C214E00048F001A221C214F000043
:1022E000214E00001C6B359E00353A79000194FFA9
:1022F000E4A000204609214E0004229D008B9A0094
:1023000000000106010600FF5800214E00042B09C1
:102310002D214E00002A04214F0000311E1C8F0089
:1023200014221B041E6B3510208A000979020194C7
:10233000FFED1E1C8F0016221B041C6B0A6C35104F
:10234000208A00097900FF94FFEB1E82000B1C21FC
:102350004E00048F000D211E1C9C0063009400049D
:10236000219A0000000000010200FF0200219A00F3
:1023700000000100010900FF1600214E00047DA1AC
:1023800005312109214E000422099C005301229AA3
:102390000001000000010202FF1000218500091564
:1023A000002D940008219C0016009A0001000000F6
:1023B000010402FF0900A0002046219D00849A002C
:1023C00001040000030802FF0B00A0002046211CAE
:1023D0001E9D00859A0000010000010202FF0E0010
:1023E00017B0000915002B94000615002C9A000068
:1023F000010100010802FF130003A1054609173A75
:1024000030A0002046090A219D008B9A000002009E
:1024100000010502FF07001C110A9E00459A0000FA
:10242000040000010702FF0700B9110A9E00589A34
:1024300000000000000104000007002111109D00B1
:10244000B09B0000020000020400001200219D0069
:102450006C211C7DA10554000021025000049B004A
:102460000100000002060000140021229C0051001F
:1024700011106B9D00B021229C007801449B00004C
:102480000000000103000A0500214E000099000031
:102490000000000103000A0700214F0000A37B9900
:1024A0000000000100010900002100214F0000A3ED
:1024B000A10531214F0000092209214E00009E0094
:1024C000D5212254000021025000049B000002028A
:1024D00000020500001E00214631A71C214F00000C
:1024E000A37B910008211C9D00B622A8940008320D
:1024F00022A823A49B02FFFF040015001800FFFF81
:1025000018001B00180000020102020900003D0033
:10251000214F0000A37B0A6B0B6D2D1E81000C1454
:102520007FFFFFFF2D94000A1C1E9100051C2D1E2D
:102530007DA10531214F0000092209214E00009E96
:1025400000D5212254000021025000049B0000020B
:102550000200020600008100214631A71C81000C08
:10256000A00022461C9D00D2A41C214F0000A37B8A
:10257000910008211C9D00B6214E00001C8F002DEB
:10258000214B0004B00007219D00B4214E00001C27
:102590008F003E214F0000214E0000023A21464E9E
:1025A00000000A6B53000094FFE4211C530000213B
:1025B0004B0004B0001B1C83000A219D00B4940052
:1025C00010211010A105540000210250000422A87F
:1025D0009400083222A823A49B02FFFF0400780085
:1025E0007B00FFFF7B007E007B00000202000205F3
:1025F00000052700214631A71C80000B1C214E003E
:10260000008E000CA00022461C9D00D2A4214F0089
:10261000001C3522A8983222A823A402FFFF040040
:1026200021002200FFFF22002500220001060200F7
:10263000050B00004F00214632A71C81000CA000B2
:1026400022461C9D00D2A41E80000B1E214E0000BD
:1026500091000CA00022461E9D00D2A41C1E9100D9
:102660000EA00022461500319D00D1A4214F00008C
:102670001C221B041E1C6C9E00D523A8940008334A
:1026800023A824A49B02FFFF040046004900FFFF8B
:1026900049004C0049000003020003050000360019
:1026A000214631A71C80000B1C214E00008E000C1F
:1026B000A00022461C9D00D2A4214B0004B00007BC
:1026C000219D00B4214F00001C193A22A894000853
:1026D0003222A823A49B02FFFF04002D003000FF3C
:1026E000FF30003300300001000200020300FF153C
:1026F00000214632A721229E00A89C00780123A831
:102700009A3323A824A402FFFF04000F001000FF47
:10271000FF10001300100001000204020900FF4630
:1027200000224632A722850008229E00A831229C62
:102730000051002B214E00001C6B2D1E214F00006C
:10274000A37B910008211E9D00B622091C214F0089
:1027500000214E00009C005301211E530000212344
:10276000A89A3323A824A402FFFF040040004100DC
:10277000FFFF41004400410001000203020900FF85
:102780003B00214632A722A326214E0000177B6B77
:102790002C1D214F0000A37B910008211D9D00B638
:1027A0002209214F0000214E0000177B9E00D521F9
:1027B0001D5300002123A89A3323A824A402FFFF5D
:1027C000040035003600FFFF3600390036000104F2
:1027D0000202040900FF3A00214632A7214E000000
:1027E0001E6B2A041B04214F0000A37B91000921CA
:1027F0001B049D00B6221C214F0000214E00001E2C
:102800009E00D5211B045300002123A89A3323A83E
:1028100024A402FFFF040034003500FFFF35003818
:1028200000350000010000020300FF0A0021179E8E
:1028300000AB9C0078019A0000010202020900FF2F
:102840003400214631A7214E00000A6B2C1D214F78
:102850000000A37B910008211D9D00B6214F0000C0
:1028600021464E0000410A6B530000173A2122A86E
:102870009A3222A823A402FFFF04002E002F00FF9B
:10288000FF2F0032002F0000020000020400FF0AA8
:1028900000211C9E00AD9C0078019A0000040000FD
:1028A000020600FF0A0021B99E00AE9C0078019A42
:1028B0000000040202030B00FF6A00214631A71C3E
:1028C00081000CA00022461C9D00D2A41E214E00B7
:1028D00000910008214E00002D1C1E91000BA0004D
:1028E00022469D00D0A41E1C6C2A041B0483002FCA
:1028F000214B0004B00007219D00B4214F00001CB3
:102900001B046B214F00001C214E00001E6C9E001A
:10291000D521464E00001B046C5300002122A89ACA
:102920003222A823A402FFFF040064006500FFFF19
:1029300065006800650000020200020B00FF4D0008
:10294000214631A71C80000B1C214E00008E000B7D
:10295000A00022469D00D0A4214B0004B000072116
:102960009D00B4214F00001C0A6B214F00001C2168
:102970004E00001C6C0A6C9E00D521464E00000AD9
:102980006C5300002122A89A3222A823A402FFFF40
:10299000040047004800FFFF48004B0048000102C8
:1029A0000200030500FF1600214632A7211C229ECB
:1029B00000A89C00820123A89A3323A824A402FF24
:1029C000FF040010001100FFFF11001400110001AE
:1029D000020204030B00FF7E00214632A71C800088
:1029E0000B1C214E000091000BA00022469D00D040
:1029F000A422850008229E00A831229C0051002DAF
:102A0000214E00001E6B2A041B04214F0000A37BF3
:102A100091000C211B049D00B694000E214B000474
:102A2000B00007219D00B4214F00001C214F000081
:102A30001C1E6B214E00001C6C9E00D522091E211D
:102A40004F00001C9C005301211B04530000212354
:102A5000A89A3323A824A402FFFF04007800790079
:102A6000FFFF79007C00790001020203030B00FFE5
:102A70007000214632A71C80000B1C214E000091E3
:102A8000000BA00022469D00D0A422A328214E00C6
:102A900000197B6B2E1F214F0000A37B91000B219F
:102AA0001F9D00B694000E214B0004B00007219D2D
:102AB00000B4214F00001C214F00001C197B6B212A
:102AC0004E00001C6C9E00D52209214F00001C19ED
:102AD0007B9E00D5211F5300002123A89A3323A8F1
:102AE00024A402FFFF04006A006B00FFFF6B006E6E
:102AF000006B0000030000030500FF0B00211C1900
:102B00009E00AB9C0082019A0000030202030B00AE
:102B1000FF5200214631A7214E00000A6B2E1F21D3
:102B20004F0000A37B91000B211F9D00B694000E67
:102B3000214B0004B00007219D00B4214F00001C70
:102B4000214F00001C0A6B214E00001C6C9E00D51A
:102B5000214F00001C193A211F5300002122A89A7E
:102B60003222A823A402FFFF04004C004D00FFFF07
:102B70004D0050004D0000040000030600FF0B0054
:102B8000211C1E9E00AD9C0082019A0000060000E0
:102B9000030800FF0B00211CBB9E00AE9C008201BD
:102BA0009A0000000205010900FF4F00214631A7ED
:102BB000214B0004B00007219D00B4214E00000A03
:102BC0006C2B1C0A6C0A722D1E800029214F0000FC
:102BD0001E352504214F00001E214F00001C1E6CD5
:102BE000353A214F00001C1E6C16043A7902FF94FE
:102BF000FFD92122A89A3222A823A402FFFF0400B1
:102C000049004A00FFFF4A004D004A000000000052
:102C1000010400FF0900A0002046219D008A9A00BF
:102C20000000000001030000060021035000049B87
:102C30000000000000010200FF0500214F00009A83
:102C40000000000000010200000500219D00439BE0
:102C5000000100000002030000060021229D004444
:102C60009B0000020000020200000500219D0043BD
:102C70009B0000000000010200000500219D006C87
:102C80009B00000000000000030B0000000206FE95
:102C9000FA0500030000000000000000000202002E
:102CA00008009E00719C0045009B00000000000091
:102CB0000402000C00A00003460F9D00125E0004F9
:102CC0009B0000000000000003090000000001FF5D
:102CD000FF020001000000000001FFFF02000109E7
:102CE0000000000101FEFF030001000000000000E1
:102CF00000000000030900000000010000020300C2
:102D0000000A00219D006C21175200009B0000006A
:102D10000000010400001500219D006C219E00D8D8
:102D200052000021214D0000219D00DB9B0001008D
:102D30000000020400002100219D006C2285000B90
:102D4000A00010469D0040A4219E00D85200002102
:102D5000214D0000229D00DB9B00000000010103CB
:102D600000001E0021214D00009D00DA2617B00052
:102D70000BA00011469D0042A421214D00009D00A2
:102D8000D99B00000000000101000001009B000031
:102D90000400FC010003000000000000000000002F
:102DA000030A00000000000000000402FF0B00A066
:102DB0000024469E00DC9D00DD9A0000000000001B
:102DC00003020A05009E00DC7B990000000001015F
:102DD000030004130021214D00009D00DA2617B2E4
:102DE00000070394000402980000000000000003A4
:102DF0000000000000000000010200000500219D0D
:102E0000006C9B0001000000020300000A00219DED
:102E1000006C21225400009B00010000000203000E
:102E2000000A00219D006C21225400019B00020039
:102E30000000030300000F00219D006C21225400BC
:102E40000021235400019B0000000000010200FF4C
:102E50000500214F00009A00000000000102000060
:102E60000500219D003B9B000000000001020000C6
:102E70000500219D00789B0000000000010200FF7A
:102E800004001500329A0001000000020300000A4D
:102E900000219D006C21225400009B0000000000D6
:102EA00000000309000000000100FF010003FF0013
:102EB000000000010000010402FF1F0017B2000A19
:102EC000179E00F18B000BA00012469D0043A4A0AA
:102ED000002846179E00F29D00F09A000100FF00B6
:102EE000010003FF00000000000000010400FF0FCC
:102EF00000A0002046214F00009E00F49D00849A0F
:102F0000000100FF000100030900000000000000B4
:102F1000010200090800214F00009E00F698000100
:102F200001FFFF020003FF00000000010000020596
:102F300000FF270017B2000E17214F00009E00F679
:102F40008B000BA00012469D0043A4A00028462140
:102F50004F0000179E00F89D00F09A00010001014B
:102F6000010402FF33000226179E00F189002B178F
:102F70009E00F231A0002046229E00F49D00842194
:102F80009C001801B0000CA0002846229D00F09A79
:102F900017035F2694FFD40F9A000100FE00020081
:102FA00001000000000000000001030000090021F2
:102FB000214F00009D00FB9B00000000000102006B
:102FC000000500219D00789B000000000001020028
:102FD000000500219D003B9B00030504020402063E
:102FE000330069007E0086008E009600B500DF0089
:102FF000FE0006010E0116011E013C0144015501AF
:103000006A0172019601BD01E201EA01F201FA01D1
:103010000202220243024B0267026F02770293020E
:103020009B02B902C102C902F402FC0204031903A3
:10303000380364036C03A303D803DE03E503EB0347
:10304000F30313043604490413006A6176612E69A0
:103050006F2E494F457863657074696F6E06004F37
:10306000424A45435406004F424A45435406004FE6
:10307000424A4543541D006A6176612E6C616E6759
:103080002E41726974686D65746963457863657013
:1030900074696F6E28006A6176612E6C616E672EAE
:1030A0004172726179496E6465784F75744F6642FA
:1030B0006F756E6473457863657074696F6E1D001B
:1030C0006A6176612E6C616E672E4172726179530E
:1030D000746F7265457863657074696F6E06004F32
:1030E000424A45435406004F424A45435406004F66
:1030F000424A45435406004F424A4543541C006A25
:103100006176612E6C616E672E436C6173734361EF
:103110007374457863657074696F6E06004F424A38
:103120004543540F006A6176612E6C616E672E45CF
:1031300072726F7213006A6176612E6C616E672E17
:10314000457863657074696F6E06004F424A454367
:103150005422006A6176612E6C616E672E496C6C38
:103160006567616C417267756D656E7445786365FE
:103170007074696F6E25006A6176612E6C616E678E
:103180002E496C6C6567616C546872656164537438
:10319000617465457863657074696F6E23006A6158
:1031A00076612E6C616E672E496E6465784F75741A
:1031B0004F66426F756E6473457863657074696FAE
:1031C0006E06004F424A45435406004F424A45436B
:1031D0005406004F424A45435406004F424A454375
:1031E000541E006A6176612E6C616E672E4E756C9E
:1031F0006C506F696E746572457863657074696F41
:103200006E1F006A6176612E6C616E672E4E756D61
:10321000626572466F726D6174457863657074693A
:103220006F6E06004F424A4543541A006A61766148
:103230002E6C616E672E4F75744F664D656D6F72A3
:10324000794572726F7206004F424A454354060038
:103250004F424A4543541A006A6176612E6C616E92
:10326000672E52756E74696D654578636570746913
:103270006F6E06004F424A4543541C006A617661F6
:103280002E6C616E672E537461636B4F7665726648
:103290006C6F774572726F7206004F424A45435415
:1032A00006004F424A45435429006A6176612E6CFC
:1032B000616E672E537472696E67496E6465784FEC
:1032C00075744F66426F756E64734578636570748C
:1032D000696F6E06004F424A45435406004F424A0A
:1032E00045435413006A6176612E6C616E672E54FB
:1032F00068726F7761626C651D006A6176612E6C21
:10330000616E672E5669727475616C4D6163686990
:103310006E654572726F722A006A617661782E64FA
:1033200061726A65656C696E672E766D2E436C619D
:103330007373556E6C6F6164656445786365707412
:10334000696F6E06004F424A45435435006A617604
:1033500061782E6461726A65656C696E672E766D40
:103360002E496E667573696F6E556E6C6F6164443D
:103370006570656E64656E637945786365707469C0
:103380006F6E33006A617661782E6461726A65657A
:103390006C696E672E766D2E4E61746976654D652B
:1033A00074686F644E6F74496D706C656D656E7492
:1033B00065644572726F720400747275650500660B
:1033C000616C736504006E756C6C060072616469F3
:1033D00078201E00206C657373207468616E204332
:1033E00068617261637465722E4D494E5F5241444B
:1033F00049582100206772656174657220746861A4
:103400006E204368617261637465722E4D41585F2E
:1034100052414449581100737263426567696E20D6
:103420003E20737263456E641600436C617373557E
:103430006E6C6F61646564457863657074696F6E06
:1034400005007574696C2E64692F202020202020CF
:103450002020313335303539383133342020313084
:103460003033202031303033202031303036343486
:10347000202035313335202020202020600A070FFE
:103480000018003C027D0296129C120614000100F6
:10349000FF7574696C00011226002F00380053007C
:1034A0009800A500B000BD00C600DD001E012B0184
:1034B0003401410152017B019C010D020000011900
:1034C000FF0000000000000119FF000100000102E0
:1034D0000119FF000201000B0400010001000200BD
:1034E00002000300030004000401040119FF0003AB
:1034F00002000C00050E0148000501000006000551
:10350000000700060008000700090008000A00097B
:10351000000B000A000C000B000D000C000E000E4A
:103520000010000F00110010001201340013000001
:103530000119FF000400010100001800000119FF3B
:103540000005010000000200011DFF00060001014E
:1035500000001B00000119FF00070000030501190E
:10356000FF0008010007030018001C0016001D00E2
:1035700017001E01080119FF0009000E0113001FAA
:103580000100002000190021000C0022001A002375
:10359000001B0024000B0025001C0026001D002736
:1035A000001E0028001F00290020002A000A002B0E
:1035B0000116002C03040119FF000A00010100009C
:1035C0002D00000119FF000B000000000119FF0091
:1035D0000C0200000005000200011DFF000D0002AA
:1035E0000100002E0101002F00080119FF000E004C
:1035F00008002100300100003101390032002200B2
:103600003300230034002400350025003600260056
:103610003701080010FF000F0006010000380027E6
:1036200000390028003A0029003B002A003C002B0A
:10363000003D01080119FF0010001A002C003E0196
:1036400013003F01000040002D0041002E00420108
:103650007300430030004501710046001900470027
:103660000C0048001B0049000B004A0031004B00D1
:1036700032004C0033004D0034004E0035004F0046
:103680003600500037005100380052003900530016
:103690003A0054003B0055003C0056003D005701E5
:1036A00016005801040119FF001101000703003E34
:1036B00000590016005A0017005B043F010000008B
:1036C00002010101020100010001010000000101ED
:1036D00002020000030000000101000201000101DC
:1036E00000010001000000010201000101010201CE
:1036F0000201000002010201010001025CBA00CFD8
:1037000000EE0013012A013B01500161018801B361
:1037100001E101120284029A02C402DC02130330A6
:10372000034003720387039503A503B503C603D6BD
:1037300003E103EC03FC0322045904BF04F504076E
:103740000517052F0548056105AB05F5054206B4CB
:10375000066607D707FF070E081E082E083F084A0F
:103760000864087A089F08DB08EE083C095D096DCB
:10377000098009A109C709E009000A410A530A653D
:103780000A890AC30ADE0A290B6B0B7D0B8D0BA578
:103790000BB90BD40BE70B360C4E0CC40C2D0D4E95
:1037A0000D740DB60D2F0EA30ED60EF60E1E0F7D48
:1037B0000F970FB60F01000000020300000A00215E
:1037C00022540000219D016C9B00000000000103B9
:1037D00000041400214D0000214F00009E001589B7
:1037E0000007039400040298000000010001040097
:1037F000FF1A00214F00009E0016214D00007B386B
:103800003121464D0000035F520000229A00000063
:103810000000010300000C00214F0000214D0000BA
:103820009E00179B00020000000303000006002119
:10383000229D00009B0000010000020300000A001E
:10384000219D016C21175200029B00000000000125
:10385000030000060021069D00059B0000010000FA
:10386000020400FF1C0017B2000B17214D00008856
:10387000000BA00112469D0143A4214F0000177BBD
:10388000389A0001000001020400092000022617F6
:10389000214D0000890017214F0000177B3822932B
:1038A0000005179817035F2694FFE70198000001B1
:1038B0000100020400FF230017B2000B17214D0086
:1038C0000088000BA00112469D0143A4214F000077
:1038D000177B383121179D000F229A00010101004A
:1038E000030500FF260017B2000B17214D000088CA
:1038F000000BA00112469D0143A4214F0000177B3D
:103900003832214F0000177B223D239A000100012D
:1039100002020700006700214F00008500112121ED
:103920004D0002A20119A50119540000214D00000B
:10393000214F0000A3880033214D0000214D0002DB
:103940005FA20119A5011932092B1C214F0000A308
:103950007B8F0012231C214F00001C383D79000191
:1039600094FFEA2123540000214F0000214D000064
:103970007B223D21464D0000035F5200009B00006A
:10398000000000010300000B002102520000210F83
:103990005400009B0001000002020500041F000902
:1039A0002B1C214D00007B8F0015214F00001C387F
:1039B00022930005039879000194FFE80298000023
:1039C000000000010200040D00214D0000B10007BD
:1039D0000394000402980000010001020900002C79
:1039E0000021464D00000360520000172718214DAA
:1039F000000089001A214F0000187B214F00001899
:103A00007B0A6B383D18035F2794FFE49B0001009D
:103A1000000102030000120021229C00060126176B
:103A20000186000821179D000F9B00000000000187
:103A30000200090500214D0000980000000102016C
:103A40000700FF2700214D0000A20119A50119312F
:103A5000092B1C214D00007B8F0012221C214F00DE
:103A6000001C383D79000194FFEB229A0000000011
:103A700000010500FF0A00A0000246210F9D00047E
:103A80009A0000000000000202090300100A9800DA
:103A900001000000010202090500214D000098000C
:103AA00001000000010202FF0500214F00009A0002
:103AB0000101000002030200060021179D000F9B78
:103AC0000000000000010200000500219D016C9B28
:103AD0000000000000000003000000000102FFFEE3
:103AE00002000304000000000000000102000005C5
:103AF00000219D01789B0002010000040400001BCE
:103B0000002122540002219D016C21235400002138
:103B1000175000002123A37B5300019B00000000ED
:103B200000010800042C00214F00018400050398C7
:103B300021464E0001410A6C5300018300162121E9
:103B40004F0000214E0001384854000184FFE40377
:103B50009802980000000100010800FF5B00214F5F
:103B6000000185002521464E0001410A6C530001E9
:103B700083001721214F0000214E000138485400D6
:103B80000185000694FFE1214F0001840023214FAD
:103B900000013121224F0002540001214B0000B0EE
:103BA000000A224F0000940007224F00019AA00053
:103BB0000D461500129D002FA40000020000020611
:103BC00000002B00219D016C1C81000BA001104600
:103BD0009D0140A41C7F00050A2B211C7DA2000A28
:103BE000540000211C114B6D11646E5300049B00A6
:103BF0000000000001040000070021110B9D001FC0
:103C00009B00000000000103000A0500214E000097
:103C1000990000000000010300040D00214E000087
:103C20007F000703940004029800000000000106D2
:103C300000FF0E00A000084621214F0000039D0058
:103C40001C9A0000000000010600FF0E00A0000802
:103C50004621214F0000029D001C9A000100020233
:103C6000020400043F002285000BA00117469D01BD
:103C700068A4214F00003223A37B2B1C7900FF8313
:103C80000024231C383324840019244F0001229C73
:103C9000011801B000050398244F00023394FFE996
:103CA00094FFDB02980001000104020500043F00BC
:103CB000214F000032229C0117002B1C147FFFFFB4
:103CC000FF7423A37B6F2D231E383223840021230E
:103CD0004E00001C8D0011234F0000229C01180192
:103CE000B000050398234F00023294FFE1029800D0
:103CF00001000104020500FF4200214F00003222B2
:103D00009C0117002B1C147FFFFFFF7423A37B6F04
:103D10002D231E383223840024234E00001C8D00E6
:103D200014234F0000229C011801B00008234F000B
:103D3000019A234F00023294FFDE0F9A0000000424
:103D400007010600006700214F0000A326214F0055
:103D50000031177B0B6D0A6B2C1D7DA2000A3221EE
:103D60001D114B6D11646E53000421235400001784
:103D70007B2E1F7903FF830037221F3833248400F2
:103D80002C242F04244F00023320044E0000147F03
:103D9000FFFFFF741D6F2A052004231B0538540004
:103DA00002231B0520043D94FFD694FFC89B00020C
:103DB000000204030600FFA7002385000BA00117E3
:103DC000469D0168A4214F000033229C0117002B5F
:103DD0001C147FFFFFFF7424A37B6F2D241E382F3C
:103DE00004200484003120044E00001C8D001E209D
:103DF000044F0000229C011801B0001120044F0064
:103E00000133200423540001249A20044F00022F80
:103E10000494FFD0214E0000214E00048E0010219A
:103E20009C001E002122239C001F029AA0000A462B
:103E30009D002D2F0420041C530000200422540058
:103E4000002004235400012004241E3854000224BE
:103E50001E20043D21464E00000A6B5300000F9ABD
:103E60000001000204020600FF6600214F0000323C
:103E7000229C0117002B1C147FFFFFFF7423A37BE0
:103E80006F2D231E38320F3323840046234E00004B
:103E90001C8D0034234F0000229C011801B0002823
:103EA0002484000E24234F000254000294000A23AD
:103EB0001E234F00023D21464E00000A6C530000B5
:103EC000234F00019A2333234F00023294FFBC0F8B
:103ED0009A0000000102010500001D00214F0000B2
:103EE0003122A37B2B7900FF1C80000A221C0F3D8E
:103EF00094FFF521095300009B000000000001021F
:103F000000FF04001500139A0000000000010200E9
:103F1000000500219D016C9B0000000000010200D3
:103F2000000500219D01789B0001000000020300B4
:103F300000060021229D01799B000000FF00010086
:103F4000010B00000000000000010600000F00212E
:103F50009D016C21219C0021009C0022009B0000FF
:103F6000040000020600000B00219D016C21B99C99
:103F70000022009B0000040000020A00001A002139
:103F8000B9BD00000005DEECE66DD4BD0000FFFF0A
:103F9000FFFFFFFFD2C600009B00000200040209E1
:103FA000000A310021C50000BD00000005DEECE67E
:103FB0006DCBBD000000000000000BC9BD0000FF7C
:103FC000FFFFFFFFFFD2C121BBC60000BB10301CAA
:103FD0007D60D1D69900000000000104000A0800AD
:103FE0002111209C00230099000002000402090016
:103FF0000A43001C82000EA00110461500149D010A
:1040000041A41C1C70741C8D00141CD821111F9C11
:10401000002300D8CB111FD8D0D69921111F9C00A6
:1040200023002D1E1C6F2A041E1B046C1C0A6C6BC3
:1040300080FFEB1B049900000000000109000B1633
:10404000002111209C002300D81120D8CF2111205D
:104050009C002300D8C9D500000000000102000028
:104060000500219D00409B0001000000020300FFAD
:10407000080021229C003B01229A0000000102015D
:104080000600FF1600219C0019002B219C0029002E
:1040900031211C0A6C9C003900229A0000000002A9
:1040A000010600FF1B00219C0019002B1C7F000B48
:1040B000A00006469D001BA4211C0A6C9C00350034
:1040C0009A0000000000010300040E00219C00196A
:1040D000007F000703940004029800010000020220
:1040E00005000A150021229C0033012B1C80000BC7
:1040F000219C0019001C6C99089900000400000321
:104100000600003600219D016C1C810022A00110D8
:1041100046A00121469D01AF1500159C0178011CA8
:104120009C017D009C0116009D0141A4211C7DA2E3
:104130000119540000211E5300049B0000020000DE
:10414000020600000700211C099D003E9B000000A4
:10415000000001040000070021110A9D003F9B00A0
:1041600001000002020700001900214E00002B1C74
:104170007900FF83000F221C214F00001C383D9462
:10418000FFF09B0000000101010900002F00214FFA
:104190000000A326214E0000177B8F0022214F0034
:1041A000003121214E00007DA20119540000220996
:1041B000214F000009214E00009E01D59B00000206
:1041C00000000205000010001C214F0000A37B919D
:1041D0000008211C9D00449B00000201020209000E
:1041E000004000214F0000A328214F000031214E44
:1041F000000483000D197B214E00046B9400071905
:104200007B0B6D2D1E1C8F00051C2D211E7DA20118
:10421000195400002209214F000009214E00009E80
:1042200001D59B00000200020205000037001C219E
:104230004E00009100151C214F0000A37B91000B44
:10424000211C9D004494001A1C2D1E214E00008F3D
:104250000010214F00001E0F3D79020194FFEE2156
:104260001C5300009B00000000000103000A07002F
:10427000214F0000A37B9900000000000103000A09
:104280000500214E00009900000000000103000419
:104290000D00214E00007F000703940004029800E7
:1042A00000000000010400FF0900A0001146219D4C
:1042B00000599A00010000000205000410002122AC
:1042C000099C003201800007039400040298000159
:1042D0000000000205000A08002122099C003201AA
:1042E0009900010200020305000A44002285002112
:1042F0001C2D1E214E00008F0014214F00001E387F
:104300008500051E9979020194FFEA9400231C2D73
:104310001E214E00008F001922214F00001E389CE4
:10432000011801B000051E9979020194FFE5089972
:1043300000010000000207000A0D002122214E00AA
:10434000000A6C9C0034019900010200020306007F
:104350000A6B001C214E00008E002AA0011246A00C
:104360000121469D01AF1C9C017D001500169C019A
:104370007801214E00009C017D009C0116009D01EA
:1043800044A42285001D1C2D1E800014214F000016
:104390001E388500051E997902FF94FFEE94001FD8
:1043A0001C2D1E80001922214F00001E389C011870
:1043B00001B000051E997902FF94FFE908990000F9
:1043C000020100020600FF56001C214E00008E0074
:1043D0002AA0010546A00121469D01AF1C9C017D3C
:1043E000001500169C017801214E00009C017D0003
:1043F0009C0116009D011BA4214F00001C389A311E
:10440000A0010546A00121469D01AF1C9C017D0035
:104410001500179C0178019C0116009D011BA40149
:1044200001052F003500360000000000010400FFE8
:104430001600214E00007F000BA0000D469D002EAF
:10444000A4214F000009389A000000000001060076
:10445000FF1B00214E00007F000BA0000D469D00B9
:104460002EA4214F0000214E00000A6C389A000152
:104470000200000306000037001C214E00008E00E1
:104480002AA0010546A00121469D01AF1C9C017D8B
:10449000001500169C017801214E00009C017D0052
:1044A0009C0116009D011BA4214F00001C223D9B76
:1044B0000000020002020900006E001C214E0000F4
:1044C0008E002AA0010546A00121469D01AF1C9C3B
:1044D000017D001500169C017801214E00009C0111
:1044E0007D009C0116009D011BA41C81000CA001F5
:1044F00005461C9D011AA4214E00001C6C0A6C2D5F
:104500001E830013214F00001C0A6B214F00001C6A
:104510001E9E01D521464E00000A6C530000214F1B
:104520000000214E00000F3D9B0001020002030B22
:1045300000006900214E00000A6B2D1C1E8E002A0F
:10454000A0010546A00121469D01AF1C9C017D00F4
:104550001500189C017801214E00009C017D009CF3
:104560000116009D011BA41E214F0000A37B91009A
:1045700008211E9D0044214F00001C214F00001CFB
:104580000A6B214E00001C6C9E01D5214F00001CBF
:10459000223D21464E00000A6B5300009B000100A3
:1045A0000002020900002800214E00000A6B2B1CAB
:1045B000214F0000A37B910008211C9D0044214F46
:1045C000000021464E0000410A6B530000223D9B33
:1045D000000100000202040004150021229C0031A9
:1045E000012B1C80000B211C9C00390003980298B1
:1045F0000000000002010500001D00092B1C214ED7
:1046000000008F0010214F00001C0F3D7900019425
:10461000FFEE21095300009B000000020401050089
:10462000FF5400219C0019000A6C2BA00121469D1B
:1046300001AF31219C001B0032221500199C01782A
:104640000144092D1E1C90002222239F0017009C6C
:10465000017701441E1C8F000C2215001A9C017862
:10466000014479020194FFDF2215001B9C017801AF
:1046700044229C0116009A00010000000204000080
:104680000F00219D016C21225400002109530000DC
:104690009B0000000000010500041400214E0000F2
:1046A000214F00004E00008F000703940004029881
:1046B0000000000200010900FF4000214F000046F9
:1046C00031A7214E0000214F00004E00008F00193D
:1046D000214F00004F000021464E0000410A6B535D
:1046E00000003822A89A22A89400083222A823A405
:1046F000A0000D4615001C9D002FA403FFFF07001E
:104700002A003000FFFF2B002D003000FFFF30009B
:1047100033003000030000000303061D003D004588
:10472000004D0055005D0065006D008C0094009CFC
:1047300000A400AC00B400BC00DE00E600EE00F611
:1047400000FE001301150129013D01430149014EFD
:104750000151015501580106004F424A4543540694
:10476000004F424A45435406004F424A45435406CF
:10477000004F424A45435406004F424A45435406BF
:10478000004F424A4543541D006A6176612E75749C
:10479000696C2E456D707479537461636B457863F1
:1047A000657074696F6E06004F424A4543540600B7
:1047B0004F424A45435406004F424A45435406007F
:1047C0004F424A45435406004F424A45435406006F
:1047D0004F424A45435420006A6176612E757469E0
:1047E0006C2E4E6F53756368456C656D656E7445D0
:1047F0007863657074696F6E06004F424A45435492
:1048000006004F424A45435406004F424A4543542E
:1048100006004F424A45435413004861736874616F
:10482000626C65456E756D657261746F7200001221
:10483000006E206D75737420626520706F736974EB
:104840006976651200496C6C6567616C2043617024
:1048500061636974793A200400203E3D2004002001
:104860003C20300300203E2001005B02002C200190
:10487000005D1000566563746F72456E756D6572EC
:1048800061746F720501030062617365000A6461FF
:10489000726A65656C696E67322E64692F203133E8
:1048A0003530353938313332202031303033202023
:1048B000313030332020313030363434202032341F
:1048C0003637202020202020600A070F001F0046D6
:1048D0000182015B0861089A09000100FF646172AE
:1048E0006A65656C696E673200010F200035004211
:1048F000004F005C007D009200B300C000D100E2D8
:1049000000F300FC000D011A0100000102FF00008D
:10491000000301000000010E0001010B0002000075
:1049200001190C000100010100000300000119FF42
:10493000000200010100000D00000119FF0003004A
:10494000010100001000000119FF00040006010031
:104950000014000C0015000D0016000E0017000FCB
:1049600000180010001901000119FF0005000300E4
:1049700011001A0012001B0013001C00000004FFAD
:1049800000060006000C001D000D001E0014001F94
:104990000015002000100022000F00230000011964
:1049A000FF000700010100002500010101FF0008D0
:1049B0000002011C002D0108002E00010102FF0071
:1049C000090002011C0030010E00310200011DFF30
:1049D000000A000201000032011600330000011934
:1049E00049000B00000200011DFF000C0002010045
:1049F000004A0116004B00000119FF000D000101E3
:104A000000004C00000119FF000E000101000050E1
:104A1000043A02010000000001000200020300004D
:104A20000001020100000102000200010101010178
:104A30000200000100000100000100000100000070
:104A40000001010202000101000101010255AC0058
:104A5000BC00E400FB000B01160121013D014801EF
:104A600053015E01690174019101A101AC01B7011B
:104A7000C701D201DD01E801F80103020E0226029E
:104A800031023C0251025C02670272027D0288021E
:104A90009302A302E90210032F033F034A035503C5
:104AA00060038703AE03B903C403D9030F041A04D8
:104AB0002F0443045304620472047D0488049304A5
:104AC0009E04A904B404BF04CA04D504E804F30492
:104AD00017052A053905480587059205DC05E70510
:104AE0002F064D065D066C067C06870692069D061F
:104AF000AD06B806C306CE060000000001020000A5
:104B00000500219D010C9B00000200000204000032
:104B10001D00A00121469D01AF15000F9C017801E9
:104B20001C7DAD9C017C009C0116009E00069B0034
:104B300001000000020400000C00A0012046229D9C
:104B400001899E00069B0000000000010200000594
:104B500000219D016C9B00000300FD02000300008A
:104B600000000100FF000100030000000001000040
:104B7000000103020011002185000BA00117469DD2
:104B80000168A4219E00059B0000000000000003B6
:104B90000A000000000000000000030A00000000FE
:104BA0000000000000030A000000000000000000F8
:104BB0000309000000000100FF010003FF000000E6
:104BC00000000000000502001200A0010346A00042
:104BD00000469D00009D01125E01049B0000000044
:104BE00000010200000500219D016C9B00000000F7
:104BF0000000000309000000000200FE02000300A4
:104C000000000000000000010200000500219D01DD
:104C10006C9B00000000000000030900000000027F
:104C200000FE02000300000000000300FD0300037B
:104C30000000000000000000010200000500219DAE
:104C4000016C9B000000FF00010000090000000053
:104C500000FF000100000A00000000000000010544
:104C6000000A0D00219C000D00219C000C007B6DB2
:104C700099000002FFFE020000FF0000000102FE9A
:104C8000FE0300000000000001000000020300001D
:104C90000A00219D016C21225400009B000000FFAE
:104CA00000010000000000000000FF000100000003
:104CB0000000000000FF00010001090000000000EA
:104CC000FF000100010A0000000002FFFE020001D7
:104CD000FF0000000102FEFE0300010000000000D2
:104CE000000000010200000500219D00149B00014E
:104CF000020000030500003B001C80000C1C219CEE
:104D0000000D008E000BA00112469D0143A42285D8
:104D1000000BA00117469D0168A422A3219C000C52
:104D20000086000BA00110469D0140A4211C229C7E
:104D30000015019B0000020000020500FF1C001C82
:104D400080000C1C219C000D008E000BA00112465F
:104D50009D0143A4211C9C0014009A000000000047
:104D6000000302FF140059000085000DA000064654
:104D70009D00215E00005900009A00000000000123
:104D80000200000500219D016C9B00000300FD0254
:104D90000003000000000000000000000308000005
:104DA00000000100FF0100030A00000000010000F4
:104DB000010402FF1C0017B2000A179E002788009A
:104DC0000BA00112469D0143A4A0000846179D00B8
:104DD0002D9A0000010000010402FF1C0017B20020
:104DE0000A179E002788000BA00112469D0143A4CC
:104DF000A0000946179D00309A00000100FF010045
:104E00000300000000000100FF0100030900000092
:104E100000010000020300000A00219D0102211789
:104E20005000009B00000002000104000A1B00214A
:104E30004631A7214B00009E002B214B00009E0015
:104E40002C7B22A8993222A823A402FFFF0400157C
:104E5000001600FFFF160019001600000300FD02F7
:104E600000030000000000010000020300000A002F
:104E7000219D010C21175000009B00000200000240
:104E80000400000900214B00001C9E002F9B000025
:104E9000000000010200000500219D01789B000038
:104EA000000000010200FF04001500109A0000003D
:104EB0000000010200000500219D016C9B00000024
:104EC00000000000030000000000000000000003DC
:104ED000FF000000000200FE0100030000000000CF
:104EE00000000000000308000000000000000000B7
:104EF0000304000000000100FF01000300000000A7
:104F00000000000000000309000000000000000095
:104F1000000309000000000100FF01000300000081
:104F200000000000000003020908009E003C9E00F3
:104F30003B60980000000000000003090000000032
:104F40000200000103020019001C9E0037A0011995
:104F5000469D016C5E0001A00119469D016C5E003A
:104F6000029B000000000000030200080057000040
:104F70007B9E00409B0000000000000202FF040036
:104F80005900019A00000000000002020804009E7F
:104F90000038980000000200000302FF24005900BE
:104FA0000285000BA0000C469D004AA45900024651
:104FB00030A79E00359E0036312221A89A3121A8C3
:104FC00022A402FFFF14001E001F00FFFF1F00228B
:104FD000001F000100FF00010003000000000100AD
:104FE0000200010302002F0059000185000BA00000
:104FF0000C469D004AA42185000BA00117469D0187
:1050000068A45900014631A7219E004522A89400BA
:10501000083222A823A49B02FFFF200026002900BB
:10502000FFFF29002C0029000101FFFF02000304FB
:1050300000000001010200020302042D00590001DA
:1050400085000BA0000C469D004AA42185000BA002
:105050000117469D0168A45900014631A717219EFA
:10506000004722A8983222A823A402FFFF2000278D
:10507000002800FFFF28002B00280000000000008F
:105080000202001300025C0000035C0001025C00ED
:10509000021227105C00039B0000000000010200C8
:1050A000000500219D01789B000000000001020026
:1050B000FF04001500119A0000000000010200002A
:1050C0000500219D016C9B00000000000000030909
:1050D000000000000100FF0100030A0000000001C1
:1050E00000FF0100030800000000000000010200B2
:1050F000000500219D016C9B0000000000000003E2
:1051000009000000000100FF01000304000000008E
:105110000100FF01000300000000000100FF01008A
:105120000300000000030300040000061200270033
:105130002F0037003F0047004F0057005F00670017
:105140006F007700AD00B500EA00F200FA00FC0045
:105150001B0106004F424A45435406004F424A4550
:10516000435406004F424A45435406004F424A45C5
:10517000435406004F424A45435406004F424A45B5
:10518000435406004F424A45435406004F424A45A5
:10519000435406004F424A45435406004F424A4595
:1051A000435434006A617661782E6461726A656581
:1051B0006C696E672E726164696F2E5061636B65F6
:1051C000744C656E677468457863656564656445AD
:1051D0007863657074696F6E06004F424A454354A8
:1051E00033006A617661782E6461726A65656C6904
:1051F0006E672E726164696F2E526164696F4E6FC3
:1052000074496E697469616C697365644578636536
:105210007074696F6E06004F424A45435406004F52
:10522000424A45435400001D005061636B65744C55
:10523000656E677468457863656564656445786321
:10524000657074696F6E1C00526164696F4E6F7493
:10525000496E697469616C697365644578636570EA
:1052600074696F6E0501030062617365000A686509
:105270006C6C6F776F726C642E64692F20203133F1
:105280003530363930333339202031303033202037
:105290003130303320203130303634342020313337
:1052A0003920202020202020600A070F001E002F18
:1052B0000032005E00640082000001000168656C3D
:1052C0006C6F776F726C64000101040000000119BB
:1052D000FF000000010100000004010102020600BD
:1052E000160000000000010200000500219D016C75
:1052F0009B0001000000010302000B00590104158E
:1053000000019C0111019B00030000000000060247
:105310000007000F0006004F424A4543540D004865
:10532000656C6C6F2C20776F726C64210501030033
:1053300062617365000A11241FBECFEFD1E2DEBFA8
:10534000CDBF14E0A0E0B2E0E6EFFDEE00E00BBF61
:1053500002C007900D92AE3AB107D9F71CE0AEEA51
:10536000B4E001C01D92A73EB107E1F70E94BC293D
:105370000C94F9760C9400000F931F93DF93CF9356
:10538000CDB7DEB72C970FB6F894DEBF0FBECDBFFA
:1053900060E071EE80E090E00E94A72A0E942C2B32
:1053A00081EE94E060E078E00E946D4B0E94AE5D7B
:1053B0008C010E944A2BDE011596E1E1F2E088E0C3
:1053C00001900D928150E1F78CE393E09A838983F9
:1053D0008091670390916803845C9C4F9C838B83CE
:1053E000C801BE016F5F7F4FAE014B5F5F4F22E090
:1053F0000E941E5C0FC0C8010E94AC59D801ED91FB
:10540000FC91309739F08285823021F480E890E079
:105410000E949D33C8010E94B854181619065CF307
:1054200080E090E02C960FB6F894DEBF0FBECDBFA3
:10543000CF91DF911F910F9108951F920F920FB698
:105440000F9211242F933F938F939F93AF93BF930A
:105450008091B2049091B304A091B404B091B504CA
:105460003091B6040196A11DB11D232F2D5F2D375C
:1054700020F02D570196A11DB11D2093B6048093F5
:10548000B2049093B304A093B404B093B504809194
:10549000AE049091AF04A091B004B091B104019614
:1054A000A11DB11D8093AE049093AF04A093B004EE
:1054B000B093B104BF91AF919F918F913F912F9184
:1054C0000F900FBE0F901F9018958FB7F8942091F2
:1054D000B2043091B3044091B4045091B5048FBF2D
:1054E000B901CA010895AF92BF92CF92DF92EF92B5
:1054F000FF920F931F935B016C010E94652A7B0151
:105500008C010E94652A6E197F09800B910BA616EB
:10551000B706C806D906A8F71F910F91FF90EF9024
:10552000DF90CF90BF90AF900895789485B582605A
:1055300085BD85B5816085BDEEE6F0E08081816046
:105540008083EAE7F0E080818068808308959B0192
:10555000AC011092C00060E874E88EE190E00E9417
:10556000D97221503040404050405695479537956C
:1055700027953093C5002093C400E1ECF0E08081D2
:10558000806180838081886080838081806880835F
:105590000895982F8091C00085FFFCCF9093C6009E
:1055A0000895CF93DF93EC0102C00E94C92A89912C
:1055B0008823D9F7DF91CF9108950F931F93DF933D
:1055C000CF93CDB7DEB7C058D0400FB6F894DEBF4A
:1055D0000FBECDBFAC019B018E010F5F1F4FC801F5
:1055E00060E870E00E941C74C8010E94D12AC05873
:1055F000DF4F0FB6F894DEBF0FBECDBFCF91DF9166
:105600001F910F910895DF93CF93CDB7DEB7FE01C1
:10561000359681919191BF010E94DD2ACF91DF9152
:105620000895AF92BF92CF92DF92EF92FF920F93C5
:105630001F930E94652A5B016C019B01A60160E03B
:1056400070E080E090E01F910F91FF90EF90DF906D
:10565000CF90BF90AF9008950E94952A0895FC01C5
:105660003697848190E00895FC013697828193817A
:105670000895FC016115710509F4089561507040A9
:10568000660F771F028CF38DE02DE60FF71F8081E8
:10569000918108959093B8048093B7040895809100
:1056A000B7049091B80408958FEF9FEF9093CE04C4
:1056B0008093CD040895CF93DF93C091B704D09128
:1056C000B804209719F480E090E007C0CE010E9452
:1056D000342B9E01281B390BC9019093B804809389
:1056E000B704C091CB04D091CC04209719F480E08A
:1056F00090E007C0CE010E94342B9E01281B390B7D
:10570000C9019093CC048093CB04DF91CF9108958D
:10571000E091B704F091B8048081918108950E94CE
:10572000882BFC01009719F420E030E002C02485AA
:105730003585C90108950E94882BDC011C96ED91E6
:10574000FC911D978281938108952091B904309135
:10575000BA048091BB049091BC04820F931FA0E017
:10576000B0E0ABBFFC0187912F5F3F4F3093BA048D
:105770002093B9040895EF92FF920F931F93209105
:10578000B9043091BA046091BB047091BC04260F37
:10579000371F280F391F790100E010E00BBFF70118
:1057A000E7902F5F3F4F40E050E04BBFF90127915A
:1057B0009E2D80E030E0282B392BC9011F910F91DD
:1057C000FF90EF9008950F931F934091B90450916B
:1057D000BA048091BB049091BC04840F951F8C0186
:1057E00020E030E02BBFF80107910196A0E0B0E087
:1057F000ABBFFC0187914E5F5F4F5093BA0440935B
:10580000B904502F40E0282F30E0242B352BC9015C
:105810001F910F910895AF92BF92CF92DF92EF92B6
:10582000FF920F931F936091B9047091BA04209175
:10583000BB043091BC04260F371F790100E010E053
:105840000BBFF701E7902F5F3F4FC901A0E0B0E029
:10585000ABBFFC0187912F5F3F4F5901CC24DD2462
:10586000CBBEF501A7902F5F3F4F40E050E04BBF0C
:10587000F90127916C5F7F4F7093BA046093B9046C
:10588000FF2400E010E01E2D0027FF24EE2490E00E
:10589000A0E0B0E0DC0199278827E82AF92A0A2B42
:1058A0001B2B822F90E0A0E0B0E0E82AF92A0A2B17
:1058B0001B2B8A2D90E0A0E0B0E0BA2FA92F982FE3
:1058C0008827E82AF92A0A2B1B2BB701C8011F9148
:1058D0000F91FF90EF90DF90CF90BF90AF90089521
:1058E0001F930E94A52B182F0E94A52B982F812F64
:1058F0001F910895E091BD04F091BE0481939193AE
:10590000F093BE04E093BD040895E091BD04F091CE
:10591000BE046193719381939193F093BE04E093DD
:10592000BD040895E091BD04F091BE04208331834D
:105930004283538364837583868397833896F09379
:10594000BE04E093BD040895E091BF04F091C0044B
:105950003297F093C004E093BF049183808308954D
:10596000E091BD04F091BE043297F093BE04E09341
:10597000BD04808191810895E091BD04F091BE0441
:105980003497F093BE04E093BD04608171818281FD
:1059900093810895E091BD04F091BE043897F0938F
:1059A000BE04E093BD042081318142815381648132
:1059B0007581868197810895E091BF04F091C004BC
:1059C000808191813296F093C004E093BF040895E2
:1059D000E091BD04F091BE043497608171818281B1
:1059E00093810895E091BF04F091C004808191817A
:1059F00008950E947A2C08950E94852C08950E9493
:105A0000922C08950E94A42C08950E94B02C089511
:105A10000E94BC2C08950E94CA2C08950E94DC2C80
:105A20000895E091BD04F091BE0432978081918188
:105A300008950E94E82C0895EF92FF920F931F9310
:105A40000E94E82C7B018C01110FEE08FE2C8701CF
:105A50009B01AC016E2D7E2D8E2D9E2D1F910F91E1
:105A6000FF90EF9008950E94F22C08959C01809180
:105A7000CA0490E0281739073CF4220F331FE09145
:105A8000C704F091C80408C0281B390B220F331F2C
:105A9000E091C304F091C404E20FF31F71836083AB
:105AA00008959C018091CA0490E0281739075CF49E
:105AB000220F331FE091C704F091C804E20FF31FD7
:105AC000808191810895281B390B220F331FE091AB
:105AD000C304F091C404E20FF31F80819181089503
